{
  "contractName": "XYZCoin",
  "abi": [
    {
      "constant": true,
      "inputs": [
        {
          "name": "",
          "type": "address"
        }
      ],
      "name": "balances",
      "outputs": [
        {
          "name": "",
          "type": "uint256"
        }
      ],
      "payable": false,
      "stateMutability": "view",
      "type": "function"
    },
    {
      "constant": true,
      "inputs": [],
      "name": "_decimals",
      "outputs": [
        {
          "name": "",
          "type": "uint8"
        }
      ],
      "payable": false,
      "stateMutability": "view",
      "type": "function"
    },
    {
      "constant": true,
      "inputs": [],
      "name": "_totalSupply",
      "outputs": [
        {
          "name": "",
          "type": "uint256"
        }
      ],
      "payable": false,
      "stateMutability": "view",
      "type": "function"
    },
    {
      "constant": true,
      "inputs": [
        {
          "name": "",
          "type": "address"
        },
        {
          "name": "",
          "type": "address"
        }
      ],
      "name": "allowed",
      "outputs": [
        {
          "name": "",
          "type": "uint256"
        }
      ],
      "payable": false,
      "stateMutability": "view",
      "type": "function"
    },
    {
      "constant": true,
      "inputs": [],
      "name": "_symbol",
      "outputs": [
        {
          "name": "",
          "type": "string"
        }
      ],
      "payable": false,
      "stateMutability": "view",
      "type": "function"
    },
    {
      "constant": true,
      "inputs": [],
      "name": "_name",
      "outputs": [
        {
          "name": "",
          "type": "string"
        }
      ],
      "payable": false,
      "stateMutability": "view",
      "type": "function"
    },
    {
      "inputs": [],
      "payable": false,
      "stateMutability": "nonpayable",
      "type": "constructor"
    },
    {
      "anonymous": false,
      "inputs": [
        {
          "indexed": true,
          "name": "from",
          "type": "address"
        },
        {
          "indexed": true,
          "name": "to",
          "type": "address"
        },
        {
          "indexed": false,
          "name": "tokens",
          "type": "uint256"
        }
      ],
      "name": "Transfer",
      "type": "event"
    },
    {
      "anonymous": false,
      "inputs": [
        {
          "indexed": true,
          "name": "tokenOwner",
          "type": "address"
        },
        {
          "indexed": true,
          "name": "spender",
          "type": "address"
        },
        {
          "indexed": false,
          "name": "tokens",
          "type": "uint256"
        }
      ],
      "name": "Approval",
      "type": "event"
    },
    {
      "constant": true,
      "inputs": [],
      "name": "name",
      "outputs": [
        {
          "name": "",
          "type": "string"
        }
      ],
      "payable": false,
      "stateMutability": "view",
      "type": "function"
    },
    {
      "constant": true,
      "inputs": [],
      "name": "symbol",
      "outputs": [
        {
          "name": "",
          "type": "string"
        }
      ],
      "payable": false,
      "stateMutability": "view",
      "type": "function"
    },
    {
      "constant": true,
      "inputs": [],
      "name": "decimals",
      "outputs": [
        {
          "name": "",
          "type": "uint8"
        }
      ],
      "payable": false,
      "stateMutability": "view",
      "type": "function"
    },
    {
      "constant": true,
      "inputs": [],
      "name": "totalSupply",
      "outputs": [
        {
          "name": "",
          "type": "uint256"
        }
      ],
      "payable": false,
      "stateMutability": "view",
      "type": "function"
    },
    {
      "constant": true,
      "inputs": [
        {
          "name": "tokenOwner",
          "type": "address"
        }
      ],
      "name": "balanceOf",
      "outputs": [
        {
          "name": "balance",
          "type": "uint256"
        }
      ],
      "payable": false,
      "stateMutability": "view",
      "type": "function"
    },
    {
      "constant": false,
      "inputs": [
        {
          "name": "to",
          "type": "address"
        },
        {
          "name": "tokens",
          "type": "uint256"
        }
      ],
      "name": "transfer",
      "outputs": [
        {
          "name": "success",
          "type": "bool"
        }
      ],
      "payable": false,
      "stateMutability": "nonpayable",
      "type": "function"
    },
    {
      "constant": false,
      "inputs": [
        {
          "name": "spender",
          "type": "address"
        },
        {
          "name": "tokens",
          "type": "uint256"
        }
      ],
      "name": "approve",
      "outputs": [
        {
          "name": "success",
          "type": "bool"
        }
      ],
      "payable": false,
      "stateMutability": "nonpayable",
      "type": "function"
    },
    {
      "constant": false,
      "inputs": [
        {
          "name": "from",
          "type": "address"
        },
        {
          "name": "to",
          "type": "address"
        },
        {
          "name": "tokens",
          "type": "uint256"
        }
      ],
      "name": "transferFrom",
      "outputs": [
        {
          "name": "success",
          "type": "bool"
        }
      ],
      "payable": false,
      "stateMutability": "nonpayable",
      "type": "function"
    },
    {
      "constant": true,
      "inputs": [
        {
          "name": "tokenOwner",
          "type": "address"
        },
        {
          "name": "spender",
          "type": "address"
        }
      ],
      "name": "allowance",
      "outputs": [
        {
          "name": "remaining",
          "type": "uint256"
        }
      ],
      "payable": false,
      "stateMutability": "view",
      "type": "function"
    }
  ],
  "bytecode": "0x60c0604052600760808190527f58595a436f696e0000000000000000000000000000000000000000000000000060a090815261003e91600091906100f2565b506040805180820190915260038082527f58595a00000000000000000000000000000000000000000000000000000000006020909201918252610083916001916100f2565b506002805460ff191690556103e86003553480156100a057600080fd5b50600354336000818152600460209081526040808320859055805194855251929391927fddf252ad1be2c89b69c2b068fc378daa952ba7f163c4a11628f55a4df523b3ef9281900390910190a361018d565b828054600181600116156101000203166002900490600052602060002090601f016020900481019282601f1061013357805160ff1916838001178555610160565b82800160010185558215610160579182015b82811115610160578251825591602001919060010190610145565b5061016c929150610170565b5090565b61018a91905b8082111561016c5760008155600101610176565b90565b6109538061019c6000396000f3fe6080604052600436106100d4577c0100000000000000000000000000000000000000000000000000000000600035046306fdde0381146100d9578063095ea7b31461016357806318160ddd146101b057806323b872dd146101d757806327e235e31461021a578063313ce5671461024d57806332424aa3146102785780633eaaf86b1461028d5780635c658165146102a257806370a08231146102dd57806395d89b4114610310578063a9059cbb14610325578063b09f12661461035e578063d28d885214610373578063dd62ed3e14610388575b600080fd5b3480156100e557600080fd5b506100ee6103c3565b6040805160208082528351818301528351919283929083019185019080838360005b83811015610128578181015183820152602001610110565b50505050905090810190601f1680156101555780820380516001836020036101000a031916815260200191505b509250505060405180910390f35b34801561016f57600080fd5b5061019c6004803603604081101561018657600080fd5b50600160a060020a038135169060200135610459565b604080519115158252519081900360200190f35b3480156101bc57600080fd5b506101c56104bf565b60408051918252519081900360200190f35b3480156101e357600080fd5b5061019c600480360360608110156101fa57600080fd5b50600160a060020a038135811691602081013590911690604001356104c5565b34801561022657600080fd5b506101c56004803603602081101561023d57600080fd5b5035600160a060020a0316610666565b34801561025957600080fd5b50610262610678565b6040805160ff9092168252519081900360200190f35b34801561028457600080fd5b50610262610681565b34801561029957600080fd5b506101c561068a565b3480156102ae57600080fd5b506101c5600480360360408110156102c557600080fd5b50600160a060020a0381358116916020013516610690565b3480156102e957600080fd5b506101c56004803603602081101561030057600080fd5b5035600160a060020a03166106ad565b34801561031c57600080fd5b506100ee6106c8565b34801561033157600080fd5b5061019c6004803603604081101561034857600080fd5b50600160a060020a038135169060200135610728565b34801561036a57600080fd5b506100ee610814565b34801561037f57600080fd5b506100ee6108a1565b34801561039457600080fd5b506101c5600480360360408110156103ab57600080fd5b50600160a060020a03813581169160200135166108fc565b60008054604080516020601f600260001961010060018816150201909516949094049384018190048102820181019092528281526060939092909183018282801561044f5780601f106104245761010080835404028352916020019161044f565b820191906000526020600020905b81548152906001019060200180831161043257829003601f168201915b5050505050905090565b336000818152600560209081526040808320600160a060020a038716808552908352818420869055815186815291519394909390927f8c5be1e5ebec7d5bd14f71427d1e84f3dd0314c0f7b2291e5b200ac8c7c3b925928290030190a350600192915050565b60035490565b600160a060020a03831660009081526004602052604081205482111561054c57604080517f08c379a000000000000000000000000000000000000000000000000000000000815260206004820152601560248201527f496e73756666696369656e742062616c616e63652e0000000000000000000000604482015290519081900360640190fd5b600160a060020a03841660009081526005602090815260408083203384529091529020548211156105de57604080517f08c379a000000000000000000000000000000000000000000000000000000000815260206004820152601760248201527f496e73756666696369656e7420616c6c6f77616e63652e000000000000000000604482015290519081900360640190fd5b600160a060020a0380851660008181526004602081815260408084208054899003905560058252808420338552825280842080548990039055948816808452918152918490208054870190558351868152935190937fddf252ad1be2c89b69c2b068fc378daa952ba7f163c4a11628f55a4df523b3ef92908290030190a35060019392505050565b60046020526000908152604090205481565b60025460ff1690565b60025460ff1681565b60035481565b600560209081526000928352604080842090915290825290205481565b600160a060020a031660009081526004602052604090205490565b60018054604080516020601f6002600019610100878916150201909516949094049384018190048102820181019092528281526060939092909183018282801561044f5780601f106104245761010080835404028352916020019161044f565b336000908152600460205260408120548211156107a657604080517f08c379a000000000000000000000000000000000000000000000000000000000815260206004820152601560248201527f496e73756666696369656e742062616c616e63652e0000000000000000000000604482015290519081900360640190fd5b33600081815260046020908152604080832080548790039055600160a060020a03871680845292819020805487019055805186815290519293927fddf252ad1be2c89b69c2b068fc378daa952ba7f163c4a11628f55a4df523b3ef929181900390910190a350600192915050565b60018054604080516020600284861615610100026000190190941693909304601f810184900484028201840190925281815292918301828280156108995780601f1061086e57610100808354040283529160200191610899565b820191906000526020600020905b81548152906001019060200180831161087c57829003601f168201915b505050505081565b6000805460408051602060026001851615610100026000190190941693909304601f810184900484028201840190925281815292918301828280156108995780601f1061086e57610100808354040283529160200191610899565b600160a060020a0391821660009081526005602090815260408083209390941682529190915220549056fea165627a7a72305820f7f0ac3c089efe1d1ca211209d976da34dc4cc80e05d654de1f6fc0d4f6127c30029",
  "source": "pragma solidity ^0.5.1;\r\nimport \"./ERC20.sol\";\r\n\r\ncontract XYZCoin is ERC20Interface {\r\n    string public _name = \"XYZCoin\";\r\n    string public _symbol = \"XYZ\";\r\n    uint8 public _decimals = 0;\r\n    uint public _totalSupply = 1000;\r\n\r\n    \r\n    mapping(address => uint) public balances;\r\n\r\n    \r\n    mapping(address => mapping(address => uint)) public allowed;\r\n\r\n    constructor() public {\r\n    \r\n        balances[msg.sender] = _totalSupply;\r\n        emit Transfer(address(0), msg.sender, _totalSupply);\r\n    }\r\n\r\n    function name() public view returns (string memory) {\r\n        return _name;\r\n    }\r\n\r\n    function symbol() public view returns (string memory) {\r\n        return _symbol;\r\n    }\r\n\r\n    function decimals() public view returns (uint8) {\r\n        return _decimals;\r\n    }\r\n\r\n    function totalSupply() public view returns (uint) {\r\n        return _totalSupply;\r\n    }\r\n\r\n    function balanceOf(address tokenOwner) public view returns (uint balance) {\r\n        return balances[tokenOwner];\r\n    }\r\n\r\n    function transfer(address to, uint tokens) public returns (bool success) {\r\n        require(balances[msg.sender] >= tokens, \"Insufficient balance.\");\r\n        balances[msg.sender] -= tokens;\r\n        balances[to] += tokens;\r\n        emit Transfer(msg.sender, to, tokens);\r\n        return true;\r\n    }\r\n\r\n    function approve(address spender, uint tokens) public returns (bool success) {\r\n        allowed[msg.sender][spender] = tokens;\r\n        emit Approval(msg.sender, spender, tokens);\r\n        return true;\r\n    }\r\n\r\n    function transferFrom(address from, address to, uint tokens) public returns (bool success) {\r\n        require(tokens <= balances[from], \"Insufficient balance.\");\r\n        require(tokens <= allowed[from][msg.sender], \"Insufficient allowance.\");\r\n        \r\n        balances[from] -= tokens;\r\n        allowed[from][msg.sender] -= tokens;\r\n        balances[to] += tokens;\r\n        emit Transfer(from, to, tokens);\r\n        return true;\r\n    }\r\n\r\n    function allowance(address tokenOwner, address spender) public view returns (uint remaining) {\r\n        return allowed[tokenOwner][spender];\r\n    }\r\n\r\n}\r\n",
  "sourcePath": "C:\\Users\\LYH\\Desktop\\PACSJF\\week3\\Lab3-Lymanth\\question4\\contracts\\XYZCoin.sol",
  "compiler": {
    "name": "solc",
    "version": "0.5.1+commit.c8a2cb62.Emscripten.clang"
  },
  "schemaVersion": "3.4.16",
  "updatedAt": "2024-02-22T05:46:25.885Z",
  "networkType": "ethereum",
  "devdoc": {
    "methods": {}
  },
  "userdoc": {
    "methods": {}
  }
}